{
  "_format": "hh-sol-artifact-1",
  "contractName": "Escrow",
  "sourceName": "contracts/Escrow.sol",
  "abi": [
    {
      "inputs": [
        {
          "internalType": "address",
          "name": "_nft",
          "type": "address"
        },
        {
          "internalType": "address",
          "name": "_seller",
          "type": "address"
        },
        {
          "internalType": "address",
          "name": "_lender",
          "type": "address"
        },
        {
          "internalType": "address",
          "name": "_inspector",
          "type": "address"
        }
      ],
      "stateMutability": "nonpayable",
      "type": "constructor"
    },
    {
      "anonymous": false,
      "inputs": [
        {
          "indexed": false,
          "internalType": "uint256",
          "name": "_assetId",
          "type": "uint256"
        },
        {
          "indexed": false,
          "internalType": "address",
          "name": "_buyer",
          "type": "address"
        },
        {
          "indexed": false,
          "internalType": "uint256",
          "name": "_price",
          "type": "uint256"
        }
      ],
      "name": "FinalizeLog",
      "type": "event"
    },
    {
      "anonymous": false,
      "inputs": [
        {
          "indexed": false,
          "internalType": "uint256",
          "name": "_assetId",
          "type": "uint256"
        },
        {
          "indexed": false,
          "internalType": "address",
          "name": "_buyer",
          "type": "address"
        },
        {
          "indexed": false,
          "internalType": "uint256",
          "name": "_price",
          "type": "uint256"
        },
        {
          "indexed": false,
          "internalType": "uint256",
          "name": "_escrowAmount",
          "type": "uint256"
        }
      ],
      "name": "ListLog",
      "type": "event"
    },
    {
      "anonymous": false,
      "inputs": [
        {
          "indexed": false,
          "internalType": "address",
          "name": "seller",
          "type": "address"
        },
        {
          "indexed": false,
          "internalType": "uint256",
          "name": "value",
          "type": "uint256"
        }
      ],
      "name": "ReceivedLog",
      "type": "event"
    },
    {
      "stateMutability": "payable",
      "type": "fallback"
    },
    {
      "inputs": [
        {
          "internalType": "uint256",
          "name": "_nftId",
          "type": "uint256"
        }
      ],
      "name": "approveSale",
      "outputs": [],
      "stateMutability": "nonpayable",
      "type": "function"
    },
    {
      "inputs": [
        {
          "internalType": "uint256",
          "name": "_nftId",
          "type": "uint256"
        }
      ],
      "name": "cancelSale",
      "outputs": [],
      "stateMutability": "nonpayable",
      "type": "function"
    },
    {
      "inputs": [
        {
          "internalType": "uint256",
          "name": "_nftId",
          "type": "uint256"
        }
      ],
      "name": "earnestDeposit",
      "outputs": [],
      "stateMutability": "payable",
      "type": "function"
    },
    {
      "inputs": [
        {
          "internalType": "uint256",
          "name": "",
          "type": "uint256"
        }
      ],
      "name": "escrowAmout",
      "outputs": [
        {
          "internalType": "uint256",
          "name": "",
          "type": "uint256"
        }
      ],
      "stateMutability": "view",
      "type": "function"
    },
    {
      "inputs": [
        {
          "internalType": "uint256",
          "name": "_nftId",
          "type": "uint256"
        }
      ],
      "name": "finalizeSales",
      "outputs": [],
      "stateMutability": "nonpayable",
      "type": "function"
    },
    {
      "inputs": [],
      "name": "getBalance",
      "outputs": [
        {
          "internalType": "uint256",
          "name": "",
          "type": "uint256"
        }
      ],
      "stateMutability": "view",
      "type": "function"
    },
    {
      "inputs": [
        {
          "internalType": "uint256",
          "name": "_nftId",
          "type": "uint256"
        },
        {
          "internalType": "address",
          "name": "_buyer",
          "type": "address"
        },
        {
          "internalType": "uint256",
          "name": "_price",
          "type": "uint256"
        },
        {
          "internalType": "uint256",
          "name": "_escrowAmount",
          "type": "uint256"
        }
      ],
      "name": "list",
      "outputs": [],
      "stateMutability": "nonpayable",
      "type": "function"
    },
    {
      "inputs": [
        {
          "internalType": "uint256",
          "name": "_nftId",
          "type": "uint256"
        },
        {
          "internalType": "bool",
          "name": "isInspected",
          "type": "bool"
        }
      ],
      "name": "propertyInspection",
      "outputs": [],
      "stateMutability": "nonpayable",
      "type": "function"
    },
    {
      "stateMutability": "payable",
      "type": "receive"
    }
  ],
  "bytecode": "0x60806040523480156200001157600080fd5b506040516200180e3803806200180e8339818101604052810190620000379190620001ae565b836000806101000a81548173ffffffffffffffffffffffffffffffffffffffff021916908373ffffffffffffffffffffffffffffffffffffffff16021790555082600160006101000a81548173ffffffffffffffffffffffffffffffffffffffff021916908373ffffffffffffffffffffffffffffffffffffffff16021790555081600260006101000a81548173ffffffffffffffffffffffffffffffffffffffff021916908373ffffffffffffffffffffffffffffffffffffffff16021790555080600360006101000a81548173ffffffffffffffffffffffffffffffffffffffff021916908373ffffffffffffffffffffffffffffffffffffffff1602179055505050505062000220565b600080fd5b600073ffffffffffffffffffffffffffffffffffffffff82169050919050565b6000620001768262000149565b9050919050565b620001888162000169565b81146200019457600080fd5b50565b600081519050620001a8816200017d565b92915050565b60008060008060808587031215620001cb57620001ca62000144565b5b6000620001db8782880162000197565b9450506020620001ee8782880162000197565b9350506040620002018782880162000197565b9250506060620002148782880162000197565b91505092959194509250565b6115de80620002306000396000f3fe60806040526004361061007f5760003560e01c8063bd94b0051161004e578063bd94b005146101b4578063c9f0ec7e146101dd578063d526472d14610206578063f44e114f14610222576100bf565b806312065fe0146100fa57806314a72feb146101255780632517db141461014e5780632bc1c7301461018b576100bf565b366100bf577f7b77daa1e286d1fb5501b9d5b89695562ea6986ba7b04326a94d3cfc4f72048d33346040516100b5929190610db5565b60405180910390a1005b7f7b77daa1e286d1fb5501b9d5b89695562ea6986ba7b04326a94d3cfc4f72048d33346040516100f0929190610db5565b60405180910390a1005b34801561010657600080fd5b5061010f61024b565b60405161011c9190610dde565b60405180910390f35b34801561013157600080fd5b5061014c60048036038101906101479190610e2a565b610253565b005b34801561015a57600080fd5b5061017560048036038101906101709190610e2a565b6102bf565b6040516101829190610dde565b60405180910390f35b34801561019757600080fd5b506101b260048036038101906101ad9190610e8f565b6102d7565b005b3480156101c057600080fd5b506101db60048036038101906101d69190610e2a565b610398565b005b3480156101e957600080fd5b5061020460048036038101906101ff9190610efb565b6104aa565b005b610220600480360381019061021b9190610e2a565b6106ba565b005b34801561022e57600080fd5b5061024960048036038101906102449190610e2a565b6107b6565b005b600047905090565b60016009600083815260200190815260200160002060003373ffffffffffffffffffffffffffffffffffffffff1673ffffffffffffffffffffffffffffffffffffffff16815260200190815260200160002060006101000a81548160ff02191690831515021790555050565b60066020528060005260406000206000915090505481565b813373ffffffffffffffffffffffffffffffffffffffff16600360009054906101000a900473ffffffffffffffffffffffffffffffffffffffff1673ffffffffffffffffffffffffffffffffffffffff1614610368576040517f08c379a000000000000000000000000000000000000000000000000000000000815260040161035f90610fe5565b60405180910390fd5b816008600085815260200190815260200160002060006101000a81548160ff021916908315150217905550505050565b6008600082815260200190815260200160002060009054906101000a900460ff161561043d576005600082815260200190815260200160002060009054906101000a900473ffffffffffffffffffffffffffffffffffffffff1673ffffffffffffffffffffffffffffffffffffffff166108fc479081150290604051600060405180830381858888f19350505050158015610437573d6000803e3d6000fd5b506104a7565b600160009054906101000a900473ffffffffffffffffffffffffffffffffffffffff1673ffffffffffffffffffffffffffffffffffffffff166108fc479081150290604051600060405180830381858888f193505050501580156104a5573d6000803e3d6000fd5b505b50565b3373ffffffffffffffffffffffffffffffffffffffff16600160009054906101000a900473ffffffffffffffffffffffffffffffffffffffff1673ffffffffffffffffffffffffffffffffffffffff161461053a576040517f08c379a000000000000000000000000000000000000000000000000000000000815260040161053190611077565b60405180910390fd5b60008054906101000a900473ffffffffffffffffffffffffffffffffffffffff1673ffffffffffffffffffffffffffffffffffffffff166323b872dd3330876040518463ffffffff1660e01b815260040161059793929190611097565b600060405180830381600087803b1580156105b157600080fd5b505af11580156105c5573d6000803e3d6000fd5b5050505060016004600086815260200190815260200160002060006101000a81548160ff021916908315150217905550826005600086815260200190815260200160002060006101000a81548173ffffffffffffffffffffffffffffffffffffffff021916908373ffffffffffffffffffffffffffffffffffffffff1602179055508060066000868152602001908152602001600020819055508160076000868152602001908152602001600020819055507fa83bf3704de77c3298da48ad16e00cbc7953c44f6d210631eb75e970a33cbb3e848484846040516106ac94939291906110ce565b60405180910390a150505050565b803373ffffffffffffffffffffffffffffffffffffffff166005600083815260200190815260200160002060009054906101000a900473ffffffffffffffffffffffffffffffffffffffff1673ffffffffffffffffffffffffffffffffffffffff161461075c576040517f08c379a000000000000000000000000000000000000000000000000000000000815260040161075390611185565b60405180910390fd5b60066000838152602001908152602001600020543410156107b2576040517f08c379a00000000000000000000000000000000000000000000000000000000081526004016107a9906111f1565b60405180910390fd5b5050565b6004600082815260200190815260200160002060009054906101000a900460ff16610816576040517f08c379a000000000000000000000000000000000000000000000000000000000815260040161080d9061125d565b60405180910390fd5b6008600082815260200190815260200160002060009054906101000a900460ff16610876576040517f08c379a000000000000000000000000000000000000000000000000000000000815260040161086d906112ef565b60405180910390fd5b6009600082815260200190815260200160002060006005600084815260200190815260200160002060009054906101000a900473ffffffffffffffffffffffffffffffffffffffff1673ffffffffffffffffffffffffffffffffffffffff1673ffffffffffffffffffffffffffffffffffffffff16815260200190815260200160002060009054906101000a900460ff16610946576040517f08c379a000000000000000000000000000000000000000000000000000000000815260040161093d9061135b565b60405180910390fd5b600960008281526020019081526020016000206000600160009054906101000a900473ffffffffffffffffffffffffffffffffffffffff1673ffffffffffffffffffffffffffffffffffffffff1673ffffffffffffffffffffffffffffffffffffffff16815260200190815260200160002060009054906101000a900460ff16610a05576040517f08c379a00000000000000000000000000000000000000000000000000000000081526004016109fc906113c7565b60405180910390fd5b600960008281526020019081526020016000206000600260009054906101000a900473ffffffffffffffffffffffffffffffffffffffff1673ffffffffffffffffffffffffffffffffffffffff1673ffffffffffffffffffffffffffffffffffffffff16815260200190815260200160002060009054906101000a900460ff16610ac4576040517f08c379a0000000000000000000000000000000000000000000000000000000008152600401610abb90611433565b60405180910390fd5b6007600082815260200190815260200160002054471015610b1a576040517f08c379a0000000000000000000000000000000000000000000000000000000008152600401610b119061149f565b60405180910390fd5b60006004600083815260200190815260200160002060006101000a81548160ff0219169083151502179055506000600160009054906101000a900473ffffffffffffffffffffffffffffffffffffffff1673ffffffffffffffffffffffffffffffffffffffff1647604051610b8e906114f0565b60006040518083038185875af1925050503d8060008114610bcb576040519150601f19603f3d011682016040523d82523d6000602084013e610bd0565b606091505b5050905080610c14576040517f08c379a0000000000000000000000000000000000000000000000000000000008152600401610c0b90611551565b60405180910390fd5b60008054906101000a900473ffffffffffffffffffffffffffffffffffffffff1673ffffffffffffffffffffffffffffffffffffffff166323b872dd306005600086815260200190815260200160002060009054906101000a900473ffffffffffffffffffffffffffffffffffffffff16856040518463ffffffff1660e01b8152600401610ca493929190611097565b600060405180830381600087803b158015610cbe57600080fd5b505af1158015610cd2573d6000803e3d6000fd5b505050507f044df8a09fbfccbd7f80673aec0ca7ea63a640830169517daa6f911385026edc826005600085815260200190815260200160002060009054906101000a900473ffffffffffffffffffffffffffffffffffffffff166007600086815260200190815260200160002054604051610d4f93929190611571565b60405180910390a15050565b600073ffffffffffffffffffffffffffffffffffffffff82169050919050565b6000610d8682610d5b565b9050919050565b610d9681610d7b565b82525050565b6000819050919050565b610daf81610d9c565b82525050565b6000604082019050610dca6000830185610d8d565b610dd76020830184610da6565b9392505050565b6000602082019050610df36000830184610da6565b92915050565b600080fd5b610e0781610d9c565b8114610e1257600080fd5b50565b600081359050610e2481610dfe565b92915050565b600060208284031215610e4057610e3f610df9565b5b6000610e4e84828501610e15565b91505092915050565b60008115159050919050565b610e6c81610e57565b8114610e7757600080fd5b50565b600081359050610e8981610e63565b92915050565b60008060408385031215610ea657610ea5610df9565b5b6000610eb485828601610e15565b9250506020610ec585828601610e7a565b9150509250929050565b610ed881610d7b565b8114610ee357600080fd5b50565b600081359050610ef581610ecf565b92915050565b60008060008060808587031215610f1557610f14610df9565b5b6000610f2387828801610e15565b9450506020610f3487828801610ee6565b9350506040610f4587828801610e15565b9250506060610f5687828801610e15565b91505092959194509250565b600082825260208201905092915050565b7f4f6e6c7920696e73706563746f72206973207065726d697474656420746f207060008201527f6572666f726d207468697320616374696f6e0000000000000000000000000000602082015250565b6000610fcf603283610f62565b9150610fda82610f73565b604082019050919050565b60006020820190508181036000830152610ffe81610fc2565b9050919050565b7f4f6e6c792073656c6c6572206973207065726d697474656420746f207065726660008201527f6f726d207468697320616374696f6e0000000000000000000000000000000000602082015250565b6000611061602f83610f62565b915061106c82611005565b604082019050919050565b6000602082019050818103600083015261109081611054565b9050919050565b60006060820190506110ac6000830186610d8d565b6110b96020830185610d8d565b6110c66040830184610da6565b949350505050565b60006080820190506110e36000830187610da6565b6110f06020830186610d8d565b6110fd6040830185610da6565b61110a6060830184610da6565b95945050505050565b7f4f6e6c79206275796572206973207065726d697474656420746f20706572666f60008201527f726d207468697320616374696f6e000000000000000000000000000000000000602082015250565b600061116f602e83610f62565b915061117a82611113565b604082019050919050565b6000602082019050818103600083015261119e81611162565b9050919050565b7f4e6f20656e6f7567682066756e64730000000000000000000000000000000000600082015250565b60006111db600f83610f62565b91506111e6826111a5565b602082019050919050565b6000602082019050818103600083015261120a816111ce565b9050919050565b7f54686973206173736574206973206e6f74206c69737465640000000000000000600082015250565b6000611247601883610f62565b915061125282611211565b602082019050919050565b600060208201905081810360008301526112768161123a565b9050919050565b7f5468697320617373657420686173206e6f74206265656e20696e73706563746560008201527f6400000000000000000000000000000000000000000000000000000000000000602082015250565b60006112d9602183610f62565b91506112e48261127d565b604082019050919050565b60006020820190508181036000830152611308816112cc565b9050919050565b7f496e7370656374696f6e20697320726571756972656400000000000000000000600082015250565b6000611345601683610f62565b91506113508261130f565b602082019050919050565b6000602082019050818103600083015261137481611338565b9050919050565b7f53656c6c657220617070726f76616c2069732072657175697265640000000000600082015250565b60006113b1601b83610f62565b91506113bc8261137b565b602082019050919050565b600060208201905081810360008301526113e0816113a4565b9050919050565b7f4c656e64657220617070726f76616c2069732072657175697265640000000000600082015250565b600061141d601b83610f62565b9150611428826113e7565b602082019050919050565b6000602082019050818103600083015261144c81611410565b9050919050565b7f496e73756666696369656e742066756e64730000000000000000000000000000600082015250565b6000611489601283610f62565b915061149482611453565b602082019050919050565b600060208201905081810360008301526114b88161147c565b9050919050565b600081905092915050565b50565b60006114da6000836114bf565b91506114e5826114ca565b600082019050919050565b60006114fb826114cd565b9150819050919050565b7f5472616e73616374696f6e204661696c65640000000000000000000000000000600082015250565b600061153b601283610f62565b915061154682611505565b602082019050919050565b6000602082019050818103600083015261156a8161152e565b9050919050565b60006060820190506115866000830186610da6565b6115936020830185610d8d565b6115a06040830184610da6565b94935050505056fea264697066735822122085948885831e201b2a8646416741bcbf936cde472ffe5f0aa39cb5f2a7e40ca164736f6c63430008180033",
  "linkReferences": {},
  "deployedLinkReferences": {}
}